:0400000080EF00F09D
:100100007F9C7F8EFF0E956E000E946E8FEF00F039
:100110000101020305080D1522375990E90004EE8C
:1001200000F0000EF86E010EF76E100EF66E0D0E5A
:10013000106E83CF06F0000E826EBDEC00F0BDECB9
:1001400000F0BDEC00F0BDEC00F00900F5CF82FF3F
:10015000F5CFEEFFFF0E206EFF0E216E000E066241
:10016000B6EC00F0102EE5D700EF00F0062EBAEC4A
:1001700000F01200BDEC00F0F9D7000E2106205A65
:04018000FDE212008A
:020000040030CA
:0700000015137F7CF98B91C1
:06000800FFC0FFE0FF4015
:00000001FF
